{
  "_format": "hh-sol-artifact-1",
  "contractName": "Github",
  "sourceName": "contracts/Github.sol",
  "abi": [
    {
      "anonymous": false,
      "inputs": [
        {
          "indexed": false,
          "internalType": "address",
          "name": "from",
          "type": "address"
        },
        {
          "indexed": false,
          "internalType": "address",
          "name": "receiver",
          "type": "address"
        },
        {
          "indexed": false,
          "internalType": "uint256",
          "name": "amount",
          "type": "uint256"
        },
        {
          "indexed": false,
          "internalType": "string",
          "name": "issue",
          "type": "string"
        },
        {
          "indexed": false,
          "internalType": "string",
          "name": "description",
          "type": "string"
        }
      ],
      "name": "Transfer",
      "type": "event"
    },
    {
      "inputs": [
        {
          "internalType": "address payable",
          "name": "receiver",
          "type": "address"
        },
        {
          "internalType": "uint256",
          "name": "_id",
          "type": "uint256"
        }
      ],
      "name": "ClaimIssue",
      "outputs": [],
      "stateMutability": "nonpayable",
      "type": "function"
    },
    {
      "inputs": [
        {
          "internalType": "uint256",
          "name": "_id",
          "type": "uint256"
        },
        {
          "internalType": "string",
          "name": "_username",
          "type": "string"
        }
      ],
      "name": "MarkComplete",
      "outputs": [
        {
          "internalType": "bool",
          "name": "",
          "type": "bool"
        }
      ],
      "stateMutability": "nonpayable",
      "type": "function"
    },
    {
      "inputs": [
        {
          "internalType": "string",
          "name": "_username",
          "type": "string"
        },
        {
          "internalType": "string",
          "name": "_repourl",
          "type": "string"
        },
        {
          "internalType": "string",
          "name": "_issue",
          "type": "string"
        },
        {
          "internalType": "string",
          "name": "_desc",
          "type": "string"
        },
        {
          "internalType": "uint256",
          "name": "_amount",
          "type": "uint256"
        }
      ],
      "name": "addIssue",
      "outputs": [],
      "stateMutability": "nonpayable",
      "type": "function"
    },
    {
      "inputs": [],
      "name": "getAllIssues",
      "outputs": [
        {
          "components": [
            {
              "internalType": "uint256",
              "name": "idnum",
              "type": "uint256"
            },
            {
              "internalType": "address",
              "name": "sender",
              "type": "address"
            },
            {
              "internalType": "string",
              "name": "username",
              "type": "string"
            },
            {
              "internalType": "string",
              "name": "repourl",
              "type": "string"
            },
            {
              "internalType": "string",
              "name": "issue",
              "type": "string"
            },
            {
              "internalType": "string",
              "name": "desc",
              "type": "string"
            },
            {
              "internalType": "uint256",
              "name": "amount",
              "type": "uint256"
            },
            {
              "internalType": "bool",
              "name": "status",
              "type": "bool"
            },
            {
              "internalType": "address",
              "name": "solvedUser",
              "type": "address"
            },
            {
              "internalType": "string",
              "name": "solvedUsername",
              "type": "string"
            },
            {
              "internalType": "bool",
              "name": "claimed",
              "type": "bool"
            },
            {
              "components": [
                {
                  "internalType": "address",
                  "name": "user",
                  "type": "address"
                },
                {
                  "internalType": "string",
                  "name": "username",
                  "type": "string"
                },
                {
                  "internalType": "bool",
                  "name": "status",
                  "type": "bool"
                },
                {
                  "internalType": "bool",
                  "name": "claimed",
                  "type": "bool"
                }
              ],
              "internalType": "struct Github.TryingStruct[]",
              "name": "users",
              "type": "tuple[]"
            }
          ],
          "internalType": "struct Github.IssuesStruct[]",
          "name": "",
          "type": "tuple[]"
        }
      ],
      "stateMutability": "view",
      "type": "function"
    },
    {
      "inputs": [],
      "name": "getClosedIssues",
      "outputs": [
        {
          "components": [
            {
              "internalType": "uint256",
              "name": "idnum",
              "type": "uint256"
            },
            {
              "internalType": "address",
              "name": "sender",
              "type": "address"
            },
            {
              "internalType": "string",
              "name": "username",
              "type": "string"
            },
            {
              "internalType": "string",
              "name": "repourl",
              "type": "string"
            },
            {
              "internalType": "string",
              "name": "issue",
              "type": "string"
            },
            {
              "internalType": "string",
              "name": "desc",
              "type": "string"
            },
            {
              "internalType": "uint256",
              "name": "amount",
              "type": "uint256"
            },
            {
              "internalType": "bool",
              "name": "status",
              "type": "bool"
            },
            {
              "internalType": "address",
              "name": "solvedUser",
              "type": "address"
            },
            {
              "internalType": "string",
              "name": "solvedUsername",
              "type": "string"
            },
            {
              "internalType": "bool",
              "name": "claimed",
              "type": "bool"
            },
            {
              "components": [
                {
                  "internalType": "address",
                  "name": "user",
                  "type": "address"
                },
                {
                  "internalType": "string",
                  "name": "username",
                  "type": "string"
                },
                {
                  "internalType": "bool",
                  "name": "status",
                  "type": "bool"
                },
                {
                  "internalType": "bool",
                  "name": "claimed",
                  "type": "bool"
                }
              ],
              "internalType": "struct Github.TryingStruct[]",
              "name": "users",
              "type": "tuple[]"
            }
          ],
          "internalType": "struct Github.IssuesStruct[]",
          "name": "",
          "type": "tuple[]"
        }
      ],
      "stateMutability": "view",
      "type": "function"
    },
    {
      "inputs": [],
      "name": "getIssuesCount",
      "outputs": [
        {
          "internalType": "uint256",
          "name": "",
          "type": "uint256"
        }
      ],
      "stateMutability": "view",
      "type": "function"
    },
    {
      "inputs": [],
      "name": "getMyCompletedIssues",
      "outputs": [
        {
          "components": [
            {
              "internalType": "uint256",
              "name": "idnum",
              "type": "uint256"
            },
            {
              "internalType": "address",
              "name": "sender",
              "type": "address"
            },
            {
              "internalType": "string",
              "name": "username",
              "type": "string"
            },
            {
              "internalType": "string",
              "name": "repourl",
              "type": "string"
            },
            {
              "internalType": "string",
              "name": "issue",
              "type": "string"
            },
            {
              "internalType": "string",
              "name": "desc",
              "type": "string"
            },
            {
              "internalType": "uint256",
              "name": "amount",
              "type": "uint256"
            },
            {
              "internalType": "bool",
              "name": "status",
              "type": "bool"
            },
            {
              "internalType": "address",
              "name": "solvedUser",
              "type": "address"
            },
            {
              "internalType": "string",
              "name": "solvedUsername",
              "type": "string"
            },
            {
              "internalType": "bool",
              "name": "claimed",
              "type": "bool"
            },
            {
              "components": [
                {
                  "internalType": "address",
                  "name": "user",
                  "type": "address"
                },
                {
                  "internalType": "string",
                  "name": "username",
                  "type": "string"
                },
                {
                  "internalType": "bool",
                  "name": "status",
                  "type": "bool"
                },
                {
                  "internalType": "bool",
                  "name": "claimed",
                  "type": "bool"
                }
              ],
              "internalType": "struct Github.TryingStruct[]",
              "name": "users",
              "type": "tuple[]"
            }
          ],
          "internalType": "struct Github.IssuesStruct[]",
          "name": "",
          "type": "tuple[]"
        }
      ],
      "stateMutability": "view",
      "type": "function"
    },
    {
      "inputs": [],
      "name": "getMyIssues",
      "outputs": [
        {
          "components": [
            {
              "internalType": "uint256",
              "name": "idnum",
              "type": "uint256"
            },
            {
              "internalType": "address",
              "name": "sender",
              "type": "address"
            },
            {
              "internalType": "string",
              "name": "username",
              "type": "string"
            },
            {
              "internalType": "string",
              "name": "repourl",
              "type": "string"
            },
            {
              "internalType": "string",
              "name": "issue",
              "type": "string"
            },
            {
              "internalType": "string",
              "name": "desc",
              "type": "string"
            },
            {
              "internalType": "uint256",
              "name": "amount",
              "type": "uint256"
            },
            {
              "internalType": "bool",
              "name": "status",
              "type": "bool"
            },
            {
              "internalType": "address",
              "name": "solvedUser",
              "type": "address"
            },
            {
              "internalType": "string",
              "name": "solvedUsername",
              "type": "string"
            },
            {
              "internalType": "bool",
              "name": "claimed",
              "type": "bool"
            },
            {
              "components": [
                {
                  "internalType": "address",
                  "name": "user",
                  "type": "address"
                },
                {
                  "internalType": "string",
                  "name": "username",
                  "type": "string"
                },
                {
                  "internalType": "bool",
                  "name": "status",
                  "type": "bool"
                },
                {
                  "internalType": "bool",
                  "name": "claimed",
                  "type": "bool"
                }
              ],
              "internalType": "struct Github.TryingStruct[]",
              "name": "users",
              "type": "tuple[]"
            }
          ],
          "internalType": "struct Github.IssuesStruct[]",
          "name": "",
          "type": "tuple[]"
        }
      ],
      "stateMutability": "view",
      "type": "function"
    },
    {
      "inputs": [],
      "name": "getMyTryingIssues",
      "outputs": [
        {
          "components": [
            {
              "internalType": "uint256",
              "name": "idnum",
              "type": "uint256"
            },
            {
              "internalType": "address",
              "name": "sender",
              "type": "address"
            },
            {
              "internalType": "string",
              "name": "username",
              "type": "string"
            },
            {
              "internalType": "string",
              "name": "repourl",
              "type": "string"
            },
            {
              "internalType": "string",
              "name": "issue",
              "type": "string"
            },
            {
              "internalType": "string",
              "name": "desc",
              "type": "string"
            },
            {
              "internalType": "uint256",
              "name": "amount",
              "type": "uint256"
            },
            {
              "internalType": "bool",
              "name": "status",
              "type": "bool"
            },
            {
              "internalType": "address",
              "name": "solvedUser",
              "type": "address"
            },
            {
              "internalType": "string",
              "name": "solvedUsername",
              "type": "string"
            },
            {
              "internalType": "bool",
              "name": "claimed",
              "type": "bool"
            },
            {
              "components": [
                {
                  "internalType": "address",
                  "name": "user",
                  "type": "address"
                },
                {
                  "internalType": "string",
                  "name": "username",
                  "type": "string"
                },
                {
                  "internalType": "bool",
                  "name": "status",
                  "type": "bool"
                },
                {
                  "internalType": "bool",
                  "name": "claimed",
                  "type": "bool"
                }
              ],
              "internalType": "struct Github.TryingStruct[]",
              "name": "users",
              "type": "tuple[]"
            }
          ],
          "internalType": "struct Github.IssuesStruct[]",
          "name": "",
          "type": "tuple[]"
        }
      ],
      "stateMutability": "view",
      "type": "function"
    },
    {
      "inputs": [],
      "name": "getOpenIssues",
      "outputs": [
        {
          "components": [
            {
              "internalType": "uint256",
              "name": "idnum",
              "type": "uint256"
            },
            {
              "internalType": "address",
              "name": "sender",
              "type": "address"
            },
            {
              "internalType": "string",
              "name": "username",
              "type": "string"
            },
            {
              "internalType": "string",
              "name": "repourl",
              "type": "string"
            },
            {
              "internalType": "string",
              "name": "issue",
              "type": "string"
            },
            {
              "internalType": "string",
              "name": "desc",
              "type": "string"
            },
            {
              "internalType": "uint256",
              "name": "amount",
              "type": "uint256"
            },
            {
              "internalType": "bool",
              "name": "status",
              "type": "bool"
            },
            {
              "internalType": "address",
              "name": "solvedUser",
              "type": "address"
            },
            {
              "internalType": "string",
              "name": "solvedUsername",
              "type": "string"
            },
            {
              "internalType": "bool",
              "name": "claimed",
              "type": "bool"
            },
            {
              "components": [
                {
                  "internalType": "address",
                  "name": "user",
                  "type": "address"
                },
                {
                  "internalType": "string",
                  "name": "username",
                  "type": "string"
                },
                {
                  "internalType": "bool",
                  "name": "status",
                  "type": "bool"
                },
                {
                  "internalType": "bool",
                  "name": "claimed",
                  "type": "bool"
                }
              ],
              "internalType": "struct Github.TryingStruct[]",
              "name": "users",
              "type": "tuple[]"
            }
          ],
          "internalType": "struct Github.IssuesStruct[]",
          "name": "",
          "type": "tuple[]"
        }
      ],
      "stateMutability": "view",
      "type": "function"
    },
    {
      "inputs": [
        {
          "internalType": "uint256",
          "name": "",
          "type": "uint256"
        }
      ],
      "name": "issues",
      "outputs": [
        {
          "internalType": "uint256",
          "name": "idnum",
          "type": "uint256"
        },
        {
          "internalType": "address",
          "name": "sender",
          "type": "address"
        },
        {
          "internalType": "string",
          "name": "username",
          "type": "string"
        },
        {
          "internalType": "string",
          "name": "repourl",
          "type": "string"
        },
        {
          "internalType": "string",
          "name": "issue",
          "type": "string"
        },
        {
          "internalType": "string",
          "name": "desc",
          "type": "string"
        },
        {
          "internalType": "uint256",
          "name": "amount",
          "type": "uint256"
        },
        {
          "internalType": "bool",
          "name": "status",
          "type": "bool"
        },
        {
          "internalType": "address",
          "name": "solvedUser",
          "type": "address"
        },
        {
          "internalType": "string",
          "name": "solvedUsername",
          "type": "string"
        },
        {
          "internalType": "bool",
          "name": "claimed",
          "type": "bool"
        }
      ],
      "stateMutability": "view",
      "type": "function"
    },
    {
      "inputs": [
        {
          "internalType": "uint256",
          "name": "_id",
          "type": "uint256"
        },
        {
          "internalType": "string",
          "name": "_username",
          "type": "string"
        }
      ],
      "name": "requestIssue",
      "outputs": [],
      "stateMutability": "nonpayable",
      "type": "function"
    }
  ],
  "bytecode": "0x608060405234801561001057600080fd5b5061405b806100206000396000f3fe608060405234801561001057600080fd5b50600436106100b45760003560e01c80636da0bbfe116100715780636da0bbfe14610185578063701ed804146101a357806384ff1e64146101bf578063ab0b4147146101dd578063d2f35c06146101fb578063f7e081631461022b576100b4565b806304e15de5146100b9578063169df568146100f35780631f4c121314610111578063380752341461012d578063442f346c1461014957806350b5944714610167575b600080fd5b6100d360048036038101906100ce91906136a6565b610249565b6040516100ea9b9a99989796959493929190613bd3565b60405180910390f35b6100fb6105a5565b6040516101089190613b7b565b60405180910390f35b61012b600480360381019061012691906135cf565b610c3f565b005b610147600480360381019061014291906136cf565b610d50565b005b610151610e76565b60405161015e9190613b7b565b60405180910390f35b61016f61154a565b60405161017c9190613bb8565b60405180910390f35b61018d611553565b60405161019a9190613b7b565b60405180910390f35b6101bd60048036038101906101b89190613593565b611ce5565b005b6101c7611dd8565b6040516101d49190613b7b565b60405180910390f35b6101e5612472565b6040516101f29190613b7b565b60405180910390f35b610215600480360381019061021091906136cf565b612b46565b6040516102229190613b9d565b60405180910390f35b610233612d74565b6040516102409190613b7b565b60405180910390f35b60016020528060005260406000206000915090508060000154908060010160009054906101000a900473ffffffffffffffffffffffffffffffffffffffff169080600201805461029890613ede565b80601f01602080910402602001604051908101604052809291908181526020018280546102c490613ede565b80156103115780601f106102e657610100808354040283529160200191610311565b820191906000526020600020905b8154815290600101906020018083116102f457829003601f168201915b50505050509080600301805461032690613ede565b80601f016020809104026020016040519081016040528092919081815260200182805461035290613ede565b801561039f5780601f106103745761010080835404028352916020019161039f565b820191906000526020600020905b81548152906001019060200180831161038257829003601f168201915b5050505050908060040180546103b490613ede565b80601f01602080910402602001604051908101604052809291908181526020018280546103e090613ede565b801561042d5780601f106104025761010080835404028352916020019161042d565b820191906000526020600020905b81548152906001019060200180831161041057829003601f168201915b50505050509080600501805461044290613ede565b80601f016020809104026020016040519081016040528092919081815260200182805461046e90613ede565b80156104bb5780601f10610490576101008083540402835291602001916104bb565b820191906000526020600020905b81548152906001019060200180831161049e57829003601f168201915b5050505050908060060154908060070160009054906101000a900460ff16908060070160019054906101000a900473ffffffffffffffffffffffffffffffffffffffff169080600801805461050f90613ede565b80601f016020809104026020016040519081016040528092919081815260200182805461053b90613ede565b80156105885780601f1061055d57610100808354040283529160200191610588565b820191906000526020600020905b81548152906001019060200180831161056b57829003601f168201915b5050505050908060090160009054906101000a900460ff1690508b565b60606000805467ffffffffffffffff8111156105ea577f4e487b7100000000000000000000000000000000000000000000000000000000600052604160045260246000fd5b60405190808252806020026020018201604052801561062357816020015b6106106133cd565b8152602001906001900390816106085790505b5090506000805b600054811015610c3657600115156001600083815260200190815260200160002060070160009054906101000a900460ff1615151415610c23576001600082815260200190815260200160002060405180610180016040529081600082015481526020016001820160009054906101000a900473ffffffffffffffffffffffffffffffffffffffff1673ffffffffffffffffffffffffffffffffffffffff1673ffffffffffffffffffffffffffffffffffffffff1681526020016002820180546106f390613ede565b80601f016020809104026020016040519081016040528092919081815260200182805461071f90613ede565b801561076c5780601f106107415761010080835404028352916020019161076c565b820191906000526020600020905b81548152906001019060200180831161074f57829003601f168201915b5050505050815260200160038201805461078590613ede565b80601f01602080910402602001604051908101604052809291908181526020018280546107b190613ede565b80156107fe5780601f106107d3576101008083540402835291602001916107fe565b820191906000526020600020905b8154815290600101906020018083116107e157829003601f168201915b5050505050815260200160048201805461081790613ede565b80601f016020809104026020016040519081016040528092919081815260200182805461084390613ede565b80156108905780601f1061086557610100808354040283529160200191610890565b820191906000526020600020905b81548152906001019060200180831161087357829003601f168201915b505050505081526020016005820180546108a990613ede565b80601f01602080910402602001604051908101604052809291908181526020018280546108d590613ede565b80156109225780601f106108f757610100808354040283529160200191610922565b820191906000526020600020905b81548152906001019060200180831161090557829003601f168201915b50505050508152602001600682015481526020016007820160009054906101000a900460ff161515151581526020016007820160019054906101000a900473ffffffffffffffffffffffffffffffffffffffff1673ffffffffffffffffffffffffffffffffffffffff1673ffffffffffffffffffffffffffffffffffffffff1681526020016008820180546109b690613ede565b80601f01602080910402602001604051908101604052809291908181526020018280546109e290613ede565b8015610a2f5780601f10610a0457610100808354040283529160200191610a2f565b820191906000526020600020905b815481529060010190602001808311610a1257829003601f168201915b505050505081526020016009820160009054906101000a900460ff16151515158152602001600a8201805480602002602001604051908101604052809291908181526020016000905b82821015610bc857838290600052602060002090600302016040518060800160405290816000820160009054906101000a900473ffffffffffffffffffffffffffffffffffffffff1673ffffffffffffffffffffffffffffffffffffffff1673ffffffffffffffffffffffffffffffffffffffff168152602001600182018054610b0190613ede565b80601f0160208091040260200160405190810160405280929190818152602001828054610b2d90613ede565b8015610b7a5780601f10610b4f57610100808354040283529160200191610b7a565b820191906000526020600020905b815481529060010190602001808311610b5d57829003601f168201915b505050505081526020016002820160009054906101000a900460ff161515151581526020016002820160019054906101000a900460ff16151515158152505081526020019060010190610a78565b5050505081525050838381518110610c09577f4e487b7100000000000000000000000000000000000000000000000000000000600052603260045260246000fd5b60200260200101819052508180610c1f90613f10565b9250505b8080610c2e90613f10565b91505061062a565b50819250505090565b60006001600080548152602001908152602001600020905060005481600001819055506001600080828254610c749190613db6565b92505081905550338160010160006101000a81548173ffffffffffffffffffffffffffffffffffffffff021916908373ffffffffffffffffffffffffffffffffffffffff16021790555085816002019080519060200190610cd692919061345e565b5084816003019080519060200190610cef92919061345e565b5083816004019080519060200190610d0892919061345e565b5082816005019080519060200190610d2192919061345e565b5081816006018190555060008160090160006101000a81548160ff021916908315150217905550505050505050565b60016000838152602001908152602001600020600a0160405180608001604052803373ffffffffffffffffffffffffffffffffffffffff16815260200183815260200160001515815260200160001515815250908060018154018082558091505060019003906000526020600020906003020160009091909190915060008201518160000160006101000a81548173ffffffffffffffffffffffffffffffffffffffff021916908373ffffffffffffffffffffffffffffffffffffffff1602179055506020820151816001019080519060200190610e2f92919061345e565b5060408201518160020160006101000a81548160ff02191690831515021790555060608201518160020160016101000a81548160ff02191690831515021790555050505050565b60606000805467ffffffffffffffff811115610ebb577f4e487b7100000000000000000000000000000000000000000000000000000000600052604160045260246000fd5b604051908082528060200260200182016040528015610ef457816020015b610ee16133cd565b815260200190600190039081610ed95790505b5090506000805b600054811015611541576001600082815260200190815260200160002060070160019054906101000a900473ffffffffffffffffffffffffffffffffffffffff1673ffffffffffffffffffffffffffffffffffffffff163373ffffffffffffffffffffffffffffffffffffffff16141561152e576001600082815260200190815260200160002060405180610180016040529081600082015481526020016001820160009054906101000a900473ffffffffffffffffffffffffffffffffffffffff1673ffffffffffffffffffffffffffffffffffffffff1673ffffffffffffffffffffffffffffffffffffffff168152602001600282018054610ffe90613ede565b80601f016020809104026020016040519081016040528092919081815260200182805461102a90613ede565b80156110775780601f1061104c57610100808354040283529160200191611077565b820191906000526020600020905b81548152906001019060200180831161105a57829003601f168201915b5050505050815260200160038201805461109090613ede565b80601f01602080910402602001604051908101604052809291908181526020018280546110bc90613ede565b80156111095780601f106110de57610100808354040283529160200191611109565b820191906000526020600020905b8154815290600101906020018083116110ec57829003601f168201915b5050505050815260200160048201805461112290613ede565b80601f016020809104026020016040519081016040528092919081815260200182805461114e90613ede565b801561119b5780601f106111705761010080835404028352916020019161119b565b820191906000526020600020905b81548152906001019060200180831161117e57829003601f168201915b505050505081526020016005820180546111b490613ede565b80601f01602080910402602001604051908101604052809291908181526020018280546111e090613ede565b801561122d5780601f106112025761010080835404028352916020019161122d565b820191906000526020600020905b81548152906001019060200180831161121057829003601f168201915b50505050508152602001600682015481526020016007820160009054906101000a900460ff161515151581526020016007820160019054906101000a900473ffffffffffffffffffffffffffffffffffffffff1673ffffffffffffffffffffffffffffffffffffffff1673ffffffffffffffffffffffffffffffffffffffff1681526020016008820180546112c190613ede565b80601f01602080910402602001604051908101604052809291908181526020018280546112ed90613ede565b801561133a5780601f1061130f5761010080835404028352916020019161133a565b820191906000526020600020905b81548152906001019060200180831161131d57829003601f168201915b505050505081526020016009820160009054906101000a900460ff16151515158152602001600a8201805480602002602001604051908101604052809291908181526020016000905b828210156114d357838290600052602060002090600302016040518060800160405290816000820160009054906101000a900473ffffffffffffffffffffffffffffffffffffffff1673ffffffffffffffffffffffffffffffffffffffff1673ffffffffffffffffffffffffffffffffffffffff16815260200160018201805461140c90613ede565b80601f016020809104026020016040519081016040528092919081815260200182805461143890613ede565b80156114855780601f1061145a57610100808354040283529160200191611485565b820191906000526020600020905b81548152906001019060200180831161146857829003601f168201915b505050505081526020016002820160009054906101000a900460ff161515151581526020016002820160019054906101000a900460ff16151515158152505081526020019060010190611383565b5050505081525050838381518110611514577f4e487b7100000000000000000000000000000000000000000000000000000000600052603260045260246000fd5b6020026020010181905250818061152a90613f10565b9250505b808061153990613f10565b915050610efb565b50819250505090565b60008054905090565b60606000805467ffffffffffffffff811115611598577f4e487b7100000000000000000000000000000000000000000000000000000000600052604160045260246000fd5b6040519080825280602002602001820160405280156115d157816020015b6115be6133cd565b8152602001906001900390816115b65790505b5090506000805b600054811015611cdc57600060016000838152602001908152602001600020600a01805490509050600115156001600084815260200190815260200160002060070160009054906101000a900460ff16151514156116365750611cc9565b60005b81811015611cc65760016000848152602001908152602001600020600a01818154811061168f577f4e487b7100000000000000000000000000000000000000000000000000000000600052603260045260246000fd5b906000526020600020906003020160000160009054906101000a900473ffffffffffffffffffffffffffffffffffffffff1673ffffffffffffffffffffffffffffffffffffffff163373ffffffffffffffffffffffffffffffffffffffff161415611cb3576001600084815260200190815260200160002060405180610180016040529081600082015481526020016001820160009054906101000a900473ffffffffffffffffffffffffffffffffffffffff1673ffffffffffffffffffffffffffffffffffffffff1673ffffffffffffffffffffffffffffffffffffffff16815260200160028201805461178390613ede565b80601f01602080910402602001604051908101604052809291908181526020018280546117af90613ede565b80156117fc5780601f106117d1576101008083540402835291602001916117fc565b820191906000526020600020905b8154815290600101906020018083116117df57829003601f168201915b5050505050815260200160038201805461181590613ede565b80601f016020809104026020016040519081016040528092919081815260200182805461184190613ede565b801561188e5780601f106118635761010080835404028352916020019161188e565b820191906000526020600020905b81548152906001019060200180831161187157829003601f168201915b505050505081526020016004820180546118a790613ede565b80601f01602080910402602001604051908101604052809291908181526020018280546118d390613ede565b80156119205780601f106118f557610100808354040283529160200191611920565b820191906000526020600020905b81548152906001019060200180831161190357829003601f168201915b5050505050815260200160058201805461193990613ede565b80601f016020809104026020016040519081016040528092919081815260200182805461196590613ede565b80156119b25780601f10611987576101008083540402835291602001916119b2565b820191906000526020600020905b81548152906001019060200180831161199557829003601f168201915b50505050508152602001600682015481526020016007820160009054906101000a900460ff161515151581526020016007820160019054906101000a900473ffffffffffffffffffffffffffffffffffffffff1673ffffffffffffffffffffffffffffffffffffffff1673ffffffffffffffffffffffffffffffffffffffff168152602001600882018054611a4690613ede565b80601f0160208091040260200160405190810160405280929190818152602001828054611a7290613ede565b8015611abf5780601f10611a9457610100808354040283529160200191611abf565b820191906000526020600020905b815481529060010190602001808311611aa257829003601f168201915b505050505081526020016009820160009054906101000a900460ff16151515158152602001600a8201805480602002602001604051908101604052809291908181526020016000905b82821015611c5857838290600052602060002090600302016040518060800160405290816000820160009054906101000a900473ffffffffffffffffffffffffffffffffffffffff1673ffffffffffffffffffffffffffffffffffffffff1673ffffffffffffffffffffffffffffffffffffffff168152602001600182018054611b9190613ede565b80601f0160208091040260200160405190810160405280929190818152602001828054611bbd90613ede565b8015611c0a5780601f10611bdf57610100808354040283529160200191611c0a565b820191906000526020600020905b815481529060010190602001808311611bed57829003601f168201915b505050505081526020016002820160009054906101000a900460ff161515151581526020016002820160019054906101000a900460ff16151515158152505081526020019060010190611b08565b5050505081525050858581518110611c99577f4e487b7100000000000000000000000000000000000000000000000000000000600052603260045260246000fd5b60200260200101819052508380611caf90613f10565b9450505b8080611cbe90613f10565b915050611639565b50505b8080611cd490613f10565b9150506115d8565b50819250505090565b60006001600083815260200190815260200160002060010160009054906101000a900473ffffffffffffffffffffffffffffffffffffffff1690506000600160008481526020019081526020016000206006015490507f5958983c36c78f71aaec2c8d1eb5f392fd57316d842a6aa664705e3e198b72538285836001600088815260200190815260200160002060040160016000898152602001908152602001600020600501604051611d9c959493929190613b1a565b60405180910390a1600180600085815260200190815260200160002060090160006101000a81548160ff02191690831515021790555050505050565b60606000805467ffffffffffffffff811115611e1d577f4e487b7100000000000000000000000000000000000000000000000000000000600052604160045260246000fd5b604051908082528060200260200182016040528015611e5657816020015b611e436133cd565b815260200190600190039081611e3b5790505b5090506000805b60005481101561246957600015156001600083815260200190815260200160002060070160009054906101000a900460ff1615151415612456576001600082815260200190815260200160002060405180610180016040529081600082015481526020016001820160009054906101000a900473ffffffffffffffffffffffffffffffffffffffff1673ffffffffffffffffffffffffffffffffffffffff1673ffffffffffffffffffffffffffffffffffffffff168152602001600282018054611f2690613ede565b80601f0160208091040260200160405190810160405280929190818152602001828054611f5290613ede565b8015611f9f5780601f10611f7457610100808354040283529160200191611f9f565b820191906000526020600020905b815481529060010190602001808311611f8257829003601f168201915b50505050508152602001600382018054611fb890613ede565b80601f0160208091040260200160405190810160405280929190818152602001828054611fe490613ede565b80156120315780601f1061200657610100808354040283529160200191612031565b820191906000526020600020905b81548152906001019060200180831161201457829003601f168201915b5050505050815260200160048201805461204a90613ede565b80601f016020809104026020016040519081016040528092919081815260200182805461207690613ede565b80156120c35780601f10612098576101008083540402835291602001916120c3565b820191906000526020600020905b8154815290600101906020018083116120a657829003601f168201915b505050505081526020016005820180546120dc90613ede565b80601f016020809104026020016040519081016040528092919081815260200182805461210890613ede565b80156121555780601f1061212a57610100808354040283529160200191612155565b820191906000526020600020905b81548152906001019060200180831161213857829003601f168201915b50505050508152602001600682015481526020016007820160009054906101000a900460ff161515151581526020016007820160019054906101000a900473ffffffffffffffffffffffffffffffffffffffff1673ffffffffffffffffffffffffffffffffffffffff1673ffffffffffffffffffffffffffffffffffffffff1681526020016008820180546121e990613ede565b80601f016020809104026020016040519081016040528092919081815260200182805461221590613ede565b80156122625780601f1061223757610100808354040283529160200191612262565b820191906000526020600020905b81548152906001019060200180831161224557829003601f168201915b505050505081526020016009820160009054906101000a900460ff16151515158152602001600a8201805480602002602001604051908101604052809291908181526020016000905b828210156123fb57838290600052602060002090600302016040518060800160405290816000820160009054906101000a900473ffffffffffffffffffffffffffffffffffffffff1673ffffffffffffffffffffffffffffffffffffffff1673ffffffffffffffffffffffffffffffffffffffff16815260200160018201805461233490613ede565b80601f016020809104026020016040519081016040528092919081815260200182805461236090613ede565b80156123ad5780601f10612382576101008083540402835291602001916123ad565b820191906000526020600020905b81548152906001019060200180831161239057829003601f168201915b505050505081526020016002820160009054906101000a900460ff161515151581526020016002820160019054906101000a900460ff161515151581525050815260200190600101906122ab565b505050508152505083838151811061243c577f4e487b7100000000000000000000000000000000000000000000000000000000600052603260045260246000fd5b6020026020010181905250818061245290613f10565b9250505b808061246190613f10565b915050611e5d565b50819250505090565b60606000805467ffffffffffffffff8111156124b7577f4e487b7100000000000000000000000000000000000000000000000000000000600052604160045260246000fd5b6040519080825280602002602001820160405280156124f057816020015b6124dd6133cd565b8152602001906001900390816124d55790505b5090506000805b600054811015612b3d576001600082815260200190815260200160002060010160009054906101000a900473ffffffffffffffffffffffffffffffffffffffff1673ffffffffffffffffffffffffffffffffffffffff163373ffffffffffffffffffffffffffffffffffffffff161415612b2a576001600082815260200190815260200160002060405180610180016040529081600082015481526020016001820160009054906101000a900473ffffffffffffffffffffffffffffffffffffffff1673ffffffffffffffffffffffffffffffffffffffff1673ffffffffffffffffffffffffffffffffffffffff1681526020016002820180546125fa90613ede565b80601f016020809104026020016040519081016040528092919081815260200182805461262690613ede565b80156126735780601f1061264857610100808354040283529160200191612673565b820191906000526020600020905b81548152906001019060200180831161265657829003601f168201915b5050505050815260200160038201805461268c90613ede565b80601f01602080910402602001604051908101604052809291908181526020018280546126b890613ede565b80156127055780601f106126da57610100808354040283529160200191612705565b820191906000526020600020905b8154815290600101906020018083116126e857829003601f168201915b5050505050815260200160048201805461271e90613ede565b80601f016020809104026020016040519081016040528092919081815260200182805461274a90613ede565b80156127975780601f1061276c57610100808354040283529160200191612797565b820191906000526020600020905b81548152906001019060200180831161277a57829003601f168201915b505050505081526020016005820180546127b090613ede565b80601f01602080910402602001604051908101604052809291908181526020018280546127dc90613ede565b80156128295780601f106127fe57610100808354040283529160200191612829565b820191906000526020600020905b81548152906001019060200180831161280c57829003601f168201915b50505050508152602001600682015481526020016007820160009054906101000a900460ff161515151581526020016007820160019054906101000a900473ffffffffffffffffffffffffffffffffffffffff1673ffffffffffffffffffffffffffffffffffffffff1673ffffffffffffffffffffffffffffffffffffffff1681526020016008820180546128bd90613ede565b80601f01602080910402602001604051908101604052809291908181526020018280546128e990613ede565b80156129365780601f1061290b57610100808354040283529160200191612936565b820191906000526020600020905b81548152906001019060200180831161291957829003601f168201915b505050505081526020016009820160009054906101000a900460ff16151515158152602001600a8201805480602002602001604051908101604052809291908181526020016000905b82821015612acf57838290600052602060002090600302016040518060800160405290816000820160009054906101000a900473ffffffffffffffffffffffffffffffffffffffff1673ffffffffffffffffffffffffffffffffffffffff1673ffffffffffffffffffffffffffffffffffffffff168152602001600182018054612a0890613ede565b80601f0160208091040260200160405190810160405280929190818152602001828054612a3490613ede565b8015612a815780601f10612a5657610100808354040283529160200191612a81565b820191906000526020600020905b815481529060010190602001808311612a6457829003601f168201915b505050505081526020016002820160009054906101000a900460ff161515151581526020016002820160019054906101000a900460ff1615151515815250508152602001906001019061297f565b5050505081525050838381518110612b10577f4e487b7100000000000000000000000000000000000000000000000000000000600052603260045260246000fd5b60200260200101819052508180612b2690613f10565b9250505b8080612b3590613f10565b9150506124f7565b50819250505090565b6000600180600085815260200190815260200160002060070160006101000a81548160ff02191690831515021790555081600160008581526020019081526020016000206008019080519060200190612ba092919061345e565b50336001600085815260200190815260200160002060070160016101000a81548173ffffffffffffffffffffffffffffffffffffffff021916908373ffffffffffffffffffffffffffffffffffffffff160217905550600060016000858152602001908152602001600020600a0180549050905060005b81811015612d675760016000868152602001908152602001600020600a018181548110612c6d577f4e487b7100000000000000000000000000000000000000000000000000000000600052603260045260246000fd5b906000526020600020906003020160000160009054906101000a900473ffffffffffffffffffffffffffffffffffffffff1673ffffffffffffffffffffffffffffffffffffffff163373ffffffffffffffffffffffffffffffffffffffff161415612d54576001806000878152602001908152602001600020600a018281548110612d21577f4e487b7100000000000000000000000000000000000000000000000000000000600052603260045260246000fd5b906000526020600020906003020160020160006101000a81548160ff021916908315150217905550600192505050612d6e565b8080612d5f90613f10565b915050612c17565b5060009150505b92915050565b60606000805467ffffffffffffffff811115612db9577f4e487b7100000000000000000000000000000000000000000000000000000000600052604160045260246000fd5b604051908082528060200260200182016040528015612df257816020015b612ddf6133cd565b815260200190600190039081612dd75790505b50905060005b6000548110156133c5576001600082815260200190815260200160002060405180610180016040529081600082015481526020016001820160009054906101000a900473ffffffffffffffffffffffffffffffffffffffff1673ffffffffffffffffffffffffffffffffffffffff1673ffffffffffffffffffffffffffffffffffffffff168152602001600282018054612e9190613ede565b80601f0160208091040260200160405190810160405280929190818152602001828054612ebd90613ede565b8015612f0a5780601f10612edf57610100808354040283529160200191612f0a565b820191906000526020600020905b815481529060010190602001808311612eed57829003601f168201915b50505050508152602001600382018054612f2390613ede565b80601f0160208091040260200160405190810160405280929190818152602001828054612f4f90613ede565b8015612f9c5780601f10612f7157610100808354040283529160200191612f9c565b820191906000526020600020905b815481529060010190602001808311612f7f57829003601f168201915b50505050508152602001600482018054612fb590613ede565b80601f0160208091040260200160405190810160405280929190818152602001828054612fe190613ede565b801561302e5780601f106130035761010080835404028352916020019161302e565b820191906000526020600020905b81548152906001019060200180831161301157829003601f168201915b5050505050815260200160058201805461304790613ede565b80601f016020809104026020016040519081016040528092919081815260200182805461307390613ede565b80156130c05780601f10613095576101008083540402835291602001916130c0565b820191906000526020600020905b8154815290600101906020018083116130a357829003601f168201915b50505050508152602001600682015481526020016007820160009054906101000a900460ff161515151581526020016007820160019054906101000a900473ffffffffffffffffffffffffffffffffffffffff1673ffffffffffffffffffffffffffffffffffffffff1673ffffffffffffffffffffffffffffffffffffffff16815260200160088201805461315490613ede565b80601f016020809104026020016040519081016040528092919081815260200182805461318090613ede565b80156131cd5780601f106131a2576101008083540402835291602001916131cd565b820191906000526020600020905b8154815290600101906020018083116131b057829003601f168201915b505050505081526020016009820160009054906101000a900460ff16151515158152602001600a8201805480602002602001604051908101604052809291908181526020016000905b8282101561336657838290600052602060002090600302016040518060800160405290816000820160009054906101000a900473ffffffffffffffffffffffffffffffffffffffff1673ffffffffffffffffffffffffffffffffffffffff1673ffffffffffffffffffffffffffffffffffffffff16815260200160018201805461329f90613ede565b80601f01602080910402602001604051908101604052809291908181526020018280546132cb90613ede565b80156133185780601f106132ed57610100808354040283529160200191613318565b820191906000526020600020905b8154815290600101906020018083116132fb57829003601f168201915b505050505081526020016002820160009054906101000a900460ff161515151581526020016002820160019054906101000a900460ff16151515158152505081526020019060010190613216565b50505050815250508282815181106133a7577f4e487b7100000000000000000000000000000000000000000000000000000000600052603260045260246000fd5b602002602001018190525080806133bd90613f10565b915050612df8565b508091505090565b60405180610180016040528060008152602001600073ffffffffffffffffffffffffffffffffffffffff1681526020016060815260200160608152602001606081526020016060815260200160008152602001600015158152602001600073ffffffffffffffffffffffffffffffffffffffff16815260200160608152602001600015158152602001606081525090565b82805461346a90613ede565b90600052602060002090601f01602090048101928261348c57600085556134d3565b82601f106134a557805160ff19168380011785556134d3565b828001600101855582156134d3579182015b828111156134d25782518255916020019190600101906134b7565b5b5090506134e091906134e4565b5090565b5b808211156134fd5760008160009055506001016134e5565b5090565b600061351461350f84613cd2565b613ca1565b90508281526020810184848401111561352c57600080fd5b613537848285613e9c565b509392505050565b60008135905061354e81613ff7565b92915050565b600082601f83011261356557600080fd5b8135613575848260208601613501565b91505092915050565b60008135905061358d8161400e565b92915050565b600080604083850312156135a657600080fd5b60006135b48582860161353f565b92505060206135c58582860161357e565b9150509250929050565b600080600080600060a086880312156135e757600080fd5b600086013567ffffffffffffffff81111561360157600080fd5b61360d88828901613554565b955050602086013567ffffffffffffffff81111561362a57600080fd5b61363688828901613554565b945050604086013567ffffffffffffffff81111561365357600080fd5b61365f88828901613554565b935050606086013567ffffffffffffffff81111561367c57600080fd5b61368888828901613554565b92505060806136998882890161357e565b9150509295509295909350565b6000602082840312156136b857600080fd5b60006136c68482850161357e565b91505092915050565b600080604083850312156136e257600080fd5b60006136f08582860161357e565b925050602083013567ffffffffffffffff81111561370d57600080fd5b61371985828601613554565b9150509250929050565b600061372f8383613972565b905092915050565b60006137438383613a99565b905092915050565b61375481613e66565b82525050565b61376381613e0c565b82525050565b61377281613e0c565b82525050565b600061378382613d37565b61378d8185613d72565b93508360208202850161379f85613d02565b8060005b858110156137db57848403895281516137bc8582613723565b94506137c783613d58565b925060208a019950506001810190506137a3565b50829750879550505050505092915050565b60006137f882613d42565b6138028185613d83565b93508360208202850161381485613d12565b8060005b8581101561385057848403895281516138318582613737565b945061383c83613d65565b925060208a01995050600181019050613818565b50829750879550505050505092915050565b61386b81613e30565b82525050565b61387a81613e30565b82525050565b600061388b82613d4d565b6138958185613d94565b93506138a5818560208601613eab565b6138ae81613fe6565b840191505092915050565b60006138c482613d4d565b6138ce8185613da5565b93506138de818560208601613eab565b6138e781613fe6565b840191505092915050565b600081546138ff81613ede565b6139098186613da5565b94506001821660008114613924576001811461393657613969565b60ff1983168652602086019350613969565b61393f85613d22565b60005b8381101561396157815481890152600182019150602081019050613942565b808801955050505b50505092915050565b60006101808301600083015161398b6000860182613afc565b50602083015161399e602086018261375a565b50604083015184820360408601526139b68282613880565b915050606083015184820360608601526139d08282613880565b915050608083015184820360808601526139ea8282613880565b91505060a083015184820360a0860152613a048282613880565b91505060c0830151613a1960c0860182613afc565b5060e0830151613a2c60e0860182613862565b50610100830151613a4161010086018261375a565b50610120830151848203610120860152613a5b8282613880565b915050610140830151613a72610140860182613862565b50610160830151848203610160860152613a8c82826137ed565b9150508091505092915050565b6000608083016000830151613ab1600086018261375a565b5060208301518482036020860152613ac98282613880565b9150506040830151613ade6040860182613862565b506060830151613af16060860182613862565b508091505092915050565b613b0581613e5c565b82525050565b613b1481613e5c565b82525050565b600060a082019050613b2f6000830188613769565b613b3c602083018761374b565b613b496040830186613b0b565b8181036060830152613b5b81856138f2565b90508181036080830152613b6f81846138f2565b90509695505050505050565b60006020820190508181036000830152613b958184613778565b905092915050565b6000602082019050613bb26000830184613871565b92915050565b6000602082019050613bcd6000830184613b0b565b92915050565b600061016082019050613be9600083018e613b0b565b613bf6602083018d613769565b8181036040830152613c08818c6138b9565b90508181036060830152613c1c818b6138b9565b90508181036080830152613c30818a6138b9565b905081810360a0830152613c4481896138b9565b9050613c5360c0830188613b0b565b613c6060e0830187613871565b613c6e610100830186613769565b818103610120830152613c8181856138b9565b9050613c91610140830184613871565b9c9b505050505050505050505050565b6000604051905081810181811067ffffffffffffffff82111715613cc857613cc7613fb7565b5b8060405250919050565b600067ffffffffffffffff821115613ced57613cec613fb7565b5b601f19601f8301169050602081019050919050565b6000819050602082019050919050565b6000819050602082019050919050565b60008190508160005260206000209050919050565b600081519050919050565b600081519050919050565b600081519050919050565b6000602082019050919050565b6000602082019050919050565b600082825260208201905092915050565b600082825260208201905092915050565b600082825260208201905092915050565b600082825260208201905092915050565b6000613dc182613e5c565b9150613dcc83613e5c565b9250827fffffffffffffffffffffffffffffffffffffffffffffffffffffffffffffffff03821115613e0157613e00613f59565b5b828201905092915050565b6000613e1782613e3c565b9050919050565b6000613e2982613e3c565b9050919050565b60008115159050919050565b600073ffffffffffffffffffffffffffffffffffffffff82169050919050565b6000819050919050565b6000613e7182613e78565b9050919050565b6000613e8382613e8a565b9050919050565b6000613e9582613e3c565b9050919050565b82818337600083830152505050565b60005b83811015613ec9578082015181840152602081019050613eae565b83811115613ed8576000848401525b50505050565b60006002820490506001821680613ef657607f821691505b60208210811415613f0a57613f09613f88565b5b50919050565b6000613f1b82613e5c565b91507fffffffffffffffffffffffffffffffffffffffffffffffffffffffffffffffff821415613f4e57613f4d613f59565b5b600182019050919050565b7f4e487b7100000000000000000000000000000000000000000000000000000000600052601160045260246000fd5b7f4e487b7100000000000000000000000000000000000000000000000000000000600052602260045260246000fd5b7f4e487b7100000000000000000000000000000000000000000000000000000000600052604160045260246000fd5b6000601f19601f8301169050919050565b61400081613e1e565b811461400b57600080fd5b50565b61401781613e5c565b811461402257600080fd5b5056fea26469706673582212202f5fc615e6f757d3fe2dddf5ad4fc373f62cc26c91b883da169a148fe1c3e49664736f6c63430008000033",
  "linkReferences": {},
  "deployedLinkReferences": {}
}